:100000000C9434000C9451000C9451000C94510049
:100010000C941A010C9451000C9451000C94510052
:100020000C9451000C9451000C9451000C94E40079
:100030000C9451000C9451000C9451000C945100FC
:100040000C9451000C9451000C9451000C945100EC
:100050000C9451000C9451000C9451000C945100DC
:100060000C9451000C94510011241FBECFEFD8E026
:10007000DEBFCDBF11E0A0E0B1E0EEE7F3E002C0EB
:1000800005900D92A830B107D9F721E0A8E0B1E0C2
:1000900001C01D92AC30B207E1F70E948B010C94B5
:1000A000BD010C94000010928000E1E8F0E01082A5
:1000B000109285001092840083E294EF909389005F
:1000C0008093880080818C608083EFE6F0E08081FF
:1000D0008260808308958CEF8AB984B18F7D84B962
:1000E00085B1806285B984B18F6184B987B18F7C15
:1000F00087B988B1806388B987B18F6087B9E8E62E
:10010000F0E0808182608083ECE6F0E080818063B3
:1001100080830895E82FF0E0EF5FFE4F30812BB130
:10012000832F90E0880F991F880F991F922F93704B
:10013000892B8BB936FF04C085B1816085B90895DC
:1001400085B18E7F85B9089580910A01813071F063
:1001500080910A01823061F080910A01833051F070
:1001600080910A01843041F020E007C021E005C001
:1001700022E003C024E001C028E080910901813021
:1001800071F080910901823061F080910901833022
:1001900051F080910901843041F090E007C091E076
:1001A00005C092E003C094E001C098E088B1807F70
:1001B000822B88B925B1892F90E0880F991F922F43
:1001C000917E892B85B908951F920F920FB60F92D9
:1001D00011242F933F934F935F936F937F938F934C
:1001E0009F93AF93BF93EF93FF9380910B0188236D
:1001F00081F080910001181654F480910001815023
:1002000080930001809100010E948A0002C0109238
:100210000B01FF91EF91BF91AF919F918F917F91D2
:100220006F915F914F913F912F910F900FBE0F9063
:100230001F9018951F920F920FB60F9211242F93B3
:100240003F934F935F936F937F938F939F93AF935E
:10025000BF93EF93FF938091000181114BC0809178
:100260000801811147C0349920C02FEF87EE93E039
:10027000215080409040E1F700C00000349913C045
:1002800080910A018F5F80930A0180910A01843076
:1002900050F084E080930A011092090181E080937C
:1002A00008010E948A00349BFECF359921C02FEFB0
:1002B00086E791E0215080409040E1F700C00000C7
:1002C000359914C0809109018F5F80930901809155
:1002D0000901843058F084E08093090110920A01EA
:1002E00081E08093080182E00E948A00359BFECF66
:1002F0000E94A400FF91EF91BF91AF919F918F91C8
:100300007F916F915F914F913F912F910F900FBE11
:100310000F901F9018950E946B000E9453007894D4
:1003200085E00E948A000E94A4001D99FECF2FEF55
:1003300080E792E0215080409040E1F700C000004B
:100340001D99F3CF80910B01882321F08091080142
:10035000813081F485E08093000110920A011092AF
:100360000901109208010E948A000E94A40081E005
:0E03700080930B011D9BFECFD8CFF894FFCFDA
:08037E000577446B6E5C3E0044
:00000001FF
